{
  "address": "0xb8f43a5fb20D2A482462B37D658d9e3fcFd3c886",
  "abi": [
    {
      "inputs": [
        {
          "internalType": "contract ITokenPriceOracle",
          "name": "_oracle",
          "type": "address"
        }
      ],
      "stateMutability": "nonpayable",
      "type": "constructor"
    },
    {
      "inputs": [
        {
          "internalType": "address",
          "name": "_tokenA",
          "type": "address"
        },
        {
          "internalType": "address",
          "name": "_tokenB",
          "type": "address"
        }
      ],
      "name": "addSupportForPairIfNeeded",
      "outputs": [],
      "stateMutability": "nonpayable",
      "type": "function"
    },
    {
      "inputs": [
        {
          "internalType": "address",
          "name": "_tokenA",
          "type": "address"
        },
        {
          "internalType": "address",
          "name": "_tokenB",
          "type": "address"
        }
      ],
      "name": "canSupportPair",
      "outputs": [
        {
          "internalType": "bool",
          "name": "",
          "type": "bool"
        }
      ],
      "stateMutability": "view",
      "type": "function"
    },
    {
      "inputs": [],
      "name": "oracle",
      "outputs": [
        {
          "internalType": "contract ITokenPriceOracle",
          "name": "",
          "type": "address"
        }
      ],
      "stateMutability": "view",
      "type": "function"
    },
    {
      "inputs": [
        {
          "internalType": "address",
          "name": "_tokenIn",
          "type": "address"
        },
        {
          "internalType": "uint128",
          "name": "_amountIn",
          "type": "uint128"
        },
        {
          "internalType": "address",
          "name": "_tokenOut",
          "type": "address"
        }
      ],
      "name": "quote",
      "outputs": [
        {
          "internalType": "uint256",
          "name": "_amountOut",
          "type": "uint256"
        }
      ],
      "stateMutability": "view",
      "type": "function"
    },
    {
      "inputs": [
        {
          "internalType": "address",
          "name": "_tokenA",
          "type": "address"
        },
        {
          "internalType": "address",
          "name": "_tokenB",
          "type": "address"
        }
      ],
      "name": "reconfigureSupportForPair",
      "outputs": [],
      "stateMutability": "nonpayable",
      "type": "function"
    }
  ],
  "transactionHash": "0x57dd3ec43d2f464a945d23ec52da45752b362ff45f08dfac04d5a37e21025330",
  "args": [
    "0x9e1ca4Cd00ED059C5d34204DCe622549583545d9"
  ],
  "numDeployments": 1,
  "bytecode": "0x60a060405234801561001057600080fd5b506040516105eb3803806105eb83398101604081905261002f91610040565b6001600160a01b0316608052610070565b60006020828403121561005257600080fd5b81516001600160a01b038116811461006957600080fd5b9392505050565b6080516105456100a66000396000818160ae01528181610184015281816102350152818161030401526103a901526105456000f3fe608060405234801561001057600080fd5b50600436106100675760003560e01c80637dc0d1d0116100505780637dc0d1d0146100a95780637f55db3a146100f5578063a513355f1461010857600080fd5b806372c12c871461006c578063734273fd14610081575b600080fd5b61007f61007a366004610447565b610129565b005b61009461008f366004610447565b6101e5565b60405190151581526020015b60405180910390f35b6100d07f000000000000000000000000000000000000000000000000000000000000000081565b60405173ffffffffffffffffffffffffffffffffffffffff90911681526020016100a0565b61007f610103366004610447565b6102a9565b61011b61011636600461047a565b610333565b6040519081526020016100a0565b6040517fdd7de37e00000000000000000000000000000000000000000000000000000000815273ffffffffffffffffffffffffffffffffffffffff8381166004830152828116602483015260606044830152600060648301527f0000000000000000000000000000000000000000000000000000000000000000169063dd7de37e906084015b600060405180830381600087803b1580156101c957600080fd5b505af11580156101dd573d6000803e3d6000fd5b505050505050565b6040517f734273fd00000000000000000000000000000000000000000000000000000000815273ffffffffffffffffffffffffffffffffffffffff838116600483015282811660248301526000917f00000000000000000000000000000000000000000000000000000000000000009091169063734273fd90604401602060405180830381865afa15801561027e573d6000803e3d6000fd5b505050506040513d601f19601f820116820180604052508101906102a291906104d4565b9392505050565b6040517fd0a26eb300000000000000000000000000000000000000000000000000000000815273ffffffffffffffffffffffffffffffffffffffff8381166004830152828116602483015260606044830152600060648301527f0000000000000000000000000000000000000000000000000000000000000000169063d0a26eb3906084016101af565b6040517fd08a8a1900000000000000000000000000000000000000000000000000000000815273ffffffffffffffffffffffffffffffffffffffff84811660048301526fffffffffffffffffffffffffffffffff84166024830152828116604483015260806064830152600060848301819052917f00000000000000000000000000000000000000000000000000000000000000009091169063d08a8a199060a401602060405180830381865afa1580156103f2573d6000803e3d6000fd5b505050506040513d601f19601f8201168201806040525081019061041691906104f6565b949350505050565b803573ffffffffffffffffffffffffffffffffffffffff8116811461044257600080fd5b919050565b6000806040838503121561045a57600080fd5b6104638361041e565b91506104716020840161041e565b90509250929050565b60008060006060848603121561048f57600080fd5b6104988461041e565b925060208401356fffffffffffffffffffffffffffffffff811681146104bd57600080fd5b91506104cb6040850161041e565b90509250925092565b6000602082840312156104e657600080fd5b815180151581146102a257600080fd5b60006020828403121561050857600080fd5b505191905056fea264697066735822122069568bda421247d5b59081df1d42e3bcfddab6ca10230cfd8af3db31cc5deb9a64736f6c63430008100033"
}