{
  "address": "0x4708433c4EF50544e7a37e2903c434F293A21aaC",
  "abi": [
    {
      "inputs": [
        {
          "internalType": "contract IChainlinkOracle",
          "name": "_chainlinkOracle",
          "type": "address"
        }
      ],
      "stateMutability": "nonpayable",
      "type": "constructor"
    },
    {
      "inputs": [
        {
          "internalType": "address",
          "name": "tokenA",
          "type": "address"
        },
        {
          "internalType": "address",
          "name": "tokenB",
          "type": "address"
        }
      ],
      "name": "PairCannotBeSupported",
      "type": "error"
    },
    {
      "inputs": [
        {
          "internalType": "address",
          "name": "tokenA",
          "type": "address"
        },
        {
          "internalType": "address",
          "name": "tokenB",
          "type": "address"
        }
      ],
      "name": "PairNotSupportedYet",
      "type": "error"
    },
    {
      "inputs": [],
      "name": "CHAINLINK_ORACLE",
      "outputs": [
        {
          "internalType": "contract IChainlinkOracle",
          "name": "",
          "type": "address"
        }
      ],
      "stateMutability": "view",
      "type": "function"
    },
    {
      "inputs": [
        {
          "internalType": "address",
          "name": "_tokenA",
          "type": "address"
        },
        {
          "internalType": "address",
          "name": "_tokenB",
          "type": "address"
        },
        {
          "internalType": "bytes",
          "name": "",
          "type": "bytes"
        }
      ],
      "name": "addOrModifySupportForPair",
      "outputs": [],
      "stateMutability": "nonpayable",
      "type": "function"
    },
    {
      "inputs": [
        {
          "internalType": "address",
          "name": "_tokenA",
          "type": "address"
        },
        {
          "internalType": "address",
          "name": "_tokenB",
          "type": "address"
        }
      ],
      "name": "addOrModifySupportForPair",
      "outputs": [],
      "stateMutability": "nonpayable",
      "type": "function"
    },
    {
      "inputs": [
        {
          "internalType": "address",
          "name": "_tokenA",
          "type": "address"
        },
        {
          "internalType": "address",
          "name": "_tokenB",
          "type": "address"
        }
      ],
      "name": "addSupportForPairIfNeeded",
      "outputs": [],
      "stateMutability": "nonpayable",
      "type": "function"
    },
    {
      "inputs": [
        {
          "internalType": "address",
          "name": "_tokenA",
          "type": "address"
        },
        {
          "internalType": "address",
          "name": "_tokenB",
          "type": "address"
        },
        {
          "internalType": "bytes",
          "name": "",
          "type": "bytes"
        }
      ],
      "name": "addSupportForPairIfNeeded",
      "outputs": [],
      "stateMutability": "nonpayable",
      "type": "function"
    },
    {
      "inputs": [
        {
          "internalType": "address",
          "name": "_tokenA",
          "type": "address"
        },
        {
          "internalType": "address",
          "name": "_tokenB",
          "type": "address"
        }
      ],
      "name": "canSupportPair",
      "outputs": [
        {
          "internalType": "bool",
          "name": "",
          "type": "bool"
        }
      ],
      "stateMutability": "view",
      "type": "function"
    },
    {
      "inputs": [
        {
          "internalType": "address",
          "name": "_tokenA",
          "type": "address"
        },
        {
          "internalType": "address",
          "name": "_tokenB",
          "type": "address"
        }
      ],
      "name": "isPairAlreadySupported",
      "outputs": [
        {
          "internalType": "bool",
          "name": "",
          "type": "bool"
        }
      ],
      "stateMutability": "view",
      "type": "function"
    },
    {
      "inputs": [
        {
          "internalType": "address",
          "name": "_tokenIn",
          "type": "address"
        },
        {
          "internalType": "uint256",
          "name": "_amountIn",
          "type": "uint256"
        },
        {
          "internalType": "address",
          "name": "_tokenOut",
          "type": "address"
        }
      ],
      "name": "quote",
      "outputs": [
        {
          "internalType": "uint256",
          "name": "_amountOut",
          "type": "uint256"
        }
      ],
      "stateMutability": "view",
      "type": "function"
    },
    {
      "inputs": [
        {
          "internalType": "address",
          "name": "_tokenIn",
          "type": "address"
        },
        {
          "internalType": "uint256",
          "name": "_amountIn",
          "type": "uint256"
        },
        {
          "internalType": "address",
          "name": "_tokenOut",
          "type": "address"
        },
        {
          "internalType": "bytes",
          "name": "",
          "type": "bytes"
        }
      ],
      "name": "quote",
      "outputs": [
        {
          "internalType": "uint256",
          "name": "_amountOut",
          "type": "uint256"
        }
      ],
      "stateMutability": "view",
      "type": "function"
    }
  ],
  "transactionHash": "0xce36b98d8e51080bc73725eace77272ba0c3c0aaeff3e27f421f3cc43c51e4e3",
  "args": [
    "0x86E8cB7Cd38F7dE6Ef7fb62A5D7cCEe350C40310"
  ],
  "numDeployments": 1,
  "bytecode": "0x60a060405234801561001057600080fd5b506040516109c83803806109c883398101604081905261002f91610040565b6001600160a01b0316608052610070565b60006020828403121561005257600080fd5b81516001600160a01b038116811461006957600080fd5b9392505050565b60805161091b6100ad6000396000818160fd01528181610201015281816102c201528181610386015281816104110152610585015261091b6000f3fe608060405234801561001057600080fd5b50600436106100a35760003560e01c8063ad18ad0c11610076578063d0a26eb31161005b578063d0a26eb314610178578063dd7de37e1461018b578063fe04e7251461019e57600080fd5b8063ad18ad0c14610144578063d08a8a191461016557600080fd5b8063734273fd146100a85780637f55db3a146100d05780639363edd6146100e5578063a3a6e3b3146100f8575b600080fd5b6100bb6100b63660046106d2565b6101b1565b60405190151581526020015b60405180910390f35b6100e36100de3660046106d2565b610275565b005b6100bb6100f33660046106d2565b610323565b61011f7f000000000000000000000000000000000000000000000000000000000000000081565b60405173ffffffffffffffffffffffffffffffffffffffff90911681526020016100c7565b610157610152366004610705565b61040d565b6040519081526020016100c7565b61015761017336600461078a565b61050b565b6100e36101863660046107f9565b610522565b6100e36101993660046107f9565b610532565b6100e36101ac3660046106d2565b610538565b6040517f734273fd00000000000000000000000000000000000000000000000000000000815273ffffffffffffffffffffffffffffffffffffffff838116600483015282811660248301526000917f00000000000000000000000000000000000000000000000000000000000000009091169063734273fd90604401602060405180830381865afa15801561024a573d6000803e3d6000fd5b505050506040513d601f19601f8201168201806040525081019061026e919061085a565b9392505050565b6040517f7f55db3a00000000000000000000000000000000000000000000000000000000815273ffffffffffffffffffffffffffffffffffffffff838116600483015282811660248301527f00000000000000000000000000000000000000000000000000000000000000001690637f55db3a906044015b600060405180830381600087803b15801561030757600080fd5b505af115801561031b573d6000803e3d6000fd5b505050505050565b600080600061033285856105b4565b909250905060006040517fe82138cd00000000000000000000000000000000000000000000000000000000815273ffffffffffffffffffffffffffffffffffffffff848116600483015283811660248301527f0000000000000000000000000000000000000000000000000000000000000000169063e82138cd90604401602060405180830381865afa1580156103cd573d6000803e3d6000fd5b505050506040513d601f19601f820116820180604052508101906103f191906108ab565b60078111156104025761040261087c565b141595945050505050565b60007f000000000000000000000000000000000000000000000000000000000000000073ffffffffffffffffffffffffffffffffffffffff1663a513355f85610455866105ff565b6040517fffffffff0000000000000000000000000000000000000000000000000000000060e085901b16815273ffffffffffffffffffffffffffffffffffffffff92831660048201526fffffffffffffffffffffffffffffffff90911660248201529085166044820152606401602060405180830381865afa1580156104df573d6000803e3d6000fd5b505050506040513d601f19601f8201168201806040525081019061050391906108cc565b949350505050565b600061051886868661040d565b9695505050505050565b61052c8484610275565b50505050565b61052c84845b6040517f72c12c8700000000000000000000000000000000000000000000000000000000815273ffffffffffffffffffffffffffffffffffffffff838116600483015282811660248301527f000000000000000000000000000000000000000000000000000000000000000016906372c12c87906044016102ed565b6000808273ffffffffffffffffffffffffffffffffffffffff168473ffffffffffffffffffffffffffffffffffffffff16106105f15782846105f4565b83835b909590945092505050565b60006fffffffffffffffffffffffffffffffff8211156106a5576040517f08c379a000000000000000000000000000000000000000000000000000000000815260206004820152602760248201527f53616665436173743a2076616c756520646f65736e27742066697420696e203160448201527f3238206269747300000000000000000000000000000000000000000000000000606482015260840160405180910390fd5b5090565b803573ffffffffffffffffffffffffffffffffffffffff811681146106cd57600080fd5b919050565b600080604083850312156106e557600080fd5b6106ee836106a9565b91506106fc602084016106a9565b90509250929050565b60008060006060848603121561071a57600080fd5b610723846106a9565b925060208401359150610738604085016106a9565b90509250925092565b60008083601f84011261075357600080fd5b50813567ffffffffffffffff81111561076b57600080fd5b60208301915083602082850101111561078357600080fd5b9250929050565b6000806000806000608086880312156107a257600080fd5b6107ab866106a9565b9450602086013593506107c0604087016106a9565b9250606086013567ffffffffffffffff8111156107dc57600080fd5b6107e888828901610741565b969995985093965092949392505050565b6000806000806060858703121561080f57600080fd5b610818856106a9565b9350610826602086016106a9565b9250604085013567ffffffffffffffff81111561084257600080fd5b61084e87828801610741565b95989497509550505050565b60006020828403121561086c57600080fd5b8151801515811461026e57600080fd5b7f4e487b7100000000000000000000000000000000000000000000000000000000600052602160045260246000fd5b6000602082840312156108bd57600080fd5b81516008811061026e57600080fd5b6000602082840312156108de57600080fd5b505191905056fea264697066735822122073e31bee56ed90e63e17aa2b487220d9e301392bf7c19e93f2e8bb5dd1f5ae4364736f6c634300080e0033"
}