{
  "address": "0xFD8aD08F7e35FA949c6dEB9B58623345Faa5D3EF",
  "abi": [
    {
      "inputs": [
        {
          "internalType": "contract ITokenPriceOracle[]",
          "name": "_initialOracles",
          "type": "address[]"
        },
        {
          "internalType": "address",
          "name": "_superAdmin",
          "type": "address"
        },
        {
          "internalType": "address[]",
          "name": "_initialAdmins",
          "type": "address[]"
        }
      ],
      "stateMutability": "nonpayable",
      "type": "constructor"
    },
    {
      "inputs": [
        {
          "internalType": "address",
          "name": "tokenA",
          "type": "address"
        },
        {
          "internalType": "address",
          "name": "tokenB",
          "type": "address"
        }
      ],
      "name": "PairCannotBeSupported",
      "type": "error"
    },
    {
      "inputs": [
        {
          "internalType": "address",
          "name": "tokenA",
          "type": "address"
        },
        {
          "internalType": "address",
          "name": "tokenB",
          "type": "address"
        }
      ],
      "name": "PairNotSupportedYet",
      "type": "error"
    },
    {
      "inputs": [],
      "name": "ZeroAddress",
      "type": "error"
    },
    {
      "anonymous": false,
      "inputs": [
        {
          "indexed": false,
          "internalType": "address",
          "name": "tokenA",
          "type": "address"
        },
        {
          "indexed": false,
          "internalType": "address",
          "name": "tokenB",
          "type": "address"
        },
        {
          "indexed": false,
          "internalType": "contract ITokenPriceOracle",
          "name": "oracle",
          "type": "address"
        }
      ],
      "name": "OracleAssigned",
      "type": "event"
    },
    {
      "anonymous": false,
      "inputs": [
        {
          "indexed": false,
          "internalType": "contract ITokenPriceOracle[]",
          "name": "oracles",
          "type": "address[]"
        }
      ],
      "name": "OracleListUpdated",
      "type": "event"
    },
    {
      "anonymous": false,
      "inputs": [
        {
          "indexed": true,
          "internalType": "bytes32",
          "name": "role",
          "type": "bytes32"
        },
        {
          "indexed": true,
          "internalType": "bytes32",
          "name": "previousAdminRole",
          "type": "bytes32"
        },
        {
          "indexed": true,
          "internalType": "bytes32",
          "name": "newAdminRole",
          "type": "bytes32"
        }
      ],
      "name": "RoleAdminChanged",
      "type": "event"
    },
    {
      "anonymous": false,
      "inputs": [
        {
          "indexed": true,
          "internalType": "bytes32",
          "name": "role",
          "type": "bytes32"
        },
        {
          "indexed": true,
          "internalType": "address",
          "name": "account",
          "type": "address"
        },
        {
          "indexed": true,
          "internalType": "address",
          "name": "sender",
          "type": "address"
        }
      ],
      "name": "RoleGranted",
      "type": "event"
    },
    {
      "anonymous": false,
      "inputs": [
        {
          "indexed": true,
          "internalType": "bytes32",
          "name": "role",
          "type": "bytes32"
        },
        {
          "indexed": true,
          "internalType": "address",
          "name": "account",
          "type": "address"
        },
        {
          "indexed": true,
          "internalType": "address",
          "name": "sender",
          "type": "address"
        }
      ],
      "name": "RoleRevoked",
      "type": "event"
    },
    {
      "inputs": [],
      "name": "ADMIN_ROLE",
      "outputs": [
        {
          "internalType": "bytes32",
          "name": "",
          "type": "bytes32"
        }
      ],
      "stateMutability": "view",
      "type": "function"
    },
    {
      "inputs": [],
      "name": "DEFAULT_ADMIN_ROLE",
      "outputs": [
        {
          "internalType": "bytes32",
          "name": "",
          "type": "bytes32"
        }
      ],
      "stateMutability": "view",
      "type": "function"
    },
    {
      "inputs": [],
      "name": "SUPER_ADMIN_ROLE",
      "outputs": [
        {
          "internalType": "bytes32",
          "name": "",
          "type": "bytes32"
        }
      ],
      "stateMutability": "view",
      "type": "function"
    },
    {
      "inputs": [
        {
          "internalType": "address",
          "name": "_tokenA",
          "type": "address"
        },
        {
          "internalType": "address",
          "name": "_tokenB",
          "type": "address"
        },
        {
          "internalType": "bytes",
          "name": "_data",
          "type": "bytes"
        }
      ],
      "name": "addOrModifySupportForPair",
      "outputs": [],
      "stateMutability": "nonpayable",
      "type": "function"
    },
    {
      "inputs": [
        {
          "internalType": "address",
          "name": "_tokenA",
          "type": "address"
        },
        {
          "internalType": "address",
          "name": "_tokenB",
          "type": "address"
        }
      ],
      "name": "addOrModifySupportForPair",
      "outputs": [],
      "stateMutability": "nonpayable",
      "type": "function"
    },
    {
      "inputs": [
        {
          "internalType": "address",
          "name": "_tokenA",
          "type": "address"
        },
        {
          "internalType": "address",
          "name": "_tokenB",
          "type": "address"
        }
      ],
      "name": "addSupportForPairIfNeeded",
      "outputs": [],
      "stateMutability": "nonpayable",
      "type": "function"
    },
    {
      "inputs": [
        {
          "internalType": "address",
          "name": "_tokenA",
          "type": "address"
        },
        {
          "internalType": "address",
          "name": "_tokenB",
          "type": "address"
        },
        {
          "internalType": "bytes",
          "name": "_data",
          "type": "bytes"
        }
      ],
      "name": "addSupportForPairIfNeeded",
      "outputs": [],
      "stateMutability": "nonpayable",
      "type": "function"
    },
    {
      "inputs": [
        {
          "internalType": "address",
          "name": "_tokenA",
          "type": "address"
        },
        {
          "internalType": "address",
          "name": "_tokenB",
          "type": "address"
        }
      ],
      "name": "assignedOracle",
      "outputs": [
        {
          "components": [
            {
              "internalType": "contract ITokenPriceOracle",
              "name": "oracle",
              "type": "address"
            },
            {
              "internalType": "bool",
              "name": "forced",
              "type": "bool"
            }
          ],
          "internalType": "struct IOracleAggregator.OracleAssignment",
          "name": "",
          "type": "tuple"
        }
      ],
      "stateMutability": "view",
      "type": "function"
    },
    {
      "inputs": [],
      "name": "availableOracles",
      "outputs": [
        {
          "internalType": "contract ITokenPriceOracle[]",
          "name": "",
          "type": "address[]"
        }
      ],
      "stateMutability": "view",
      "type": "function"
    },
    {
      "inputs": [
        {
          "internalType": "address",
          "name": "_tokenA",
          "type": "address"
        },
        {
          "internalType": "address",
          "name": "_tokenB",
          "type": "address"
        }
      ],
      "name": "canSupportPair",
      "outputs": [
        {
          "internalType": "bool",
          "name": "",
          "type": "bool"
        }
      ],
      "stateMutability": "view",
      "type": "function"
    },
    {
      "inputs": [
        {
          "internalType": "address",
          "name": "_tokenA",
          "type": "address"
        },
        {
          "internalType": "address",
          "name": "_tokenB",
          "type": "address"
        },
        {
          "internalType": "contract ITokenPriceOracle",
          "name": "_oracle",
          "type": "address"
        }
      ],
      "name": "forceOracle",
      "outputs": [],
      "stateMutability": "nonpayable",
      "type": "function"
    },
    {
      "inputs": [
        {
          "internalType": "bytes32",
          "name": "role",
          "type": "bytes32"
        }
      ],
      "name": "getRoleAdmin",
      "outputs": [
        {
          "internalType": "bytes32",
          "name": "",
          "type": "bytes32"
        }
      ],
      "stateMutability": "view",
      "type": "function"
    },
    {
      "inputs": [
        {
          "internalType": "bytes32",
          "name": "role",
          "type": "bytes32"
        },
        {
          "internalType": "address",
          "name": "account",
          "type": "address"
        }
      ],
      "name": "grantRole",
      "outputs": [],
      "stateMutability": "nonpayable",
      "type": "function"
    },
    {
      "inputs": [
        {
          "internalType": "bytes32",
          "name": "role",
          "type": "bytes32"
        },
        {
          "internalType": "address",
          "name": "account",
          "type": "address"
        }
      ],
      "name": "hasRole",
      "outputs": [
        {
          "internalType": "bool",
          "name": "",
          "type": "bool"
        }
      ],
      "stateMutability": "view",
      "type": "function"
    },
    {
      "inputs": [
        {
          "internalType": "address",
          "name": "_tokenA",
          "type": "address"
        },
        {
          "internalType": "address",
          "name": "_tokenB",
          "type": "address"
        }
      ],
      "name": "isPairAlreadySupported",
      "outputs": [
        {
          "internalType": "bool",
          "name": "",
          "type": "bool"
        }
      ],
      "stateMutability": "view",
      "type": "function"
    },
    {
      "inputs": [
        {
          "internalType": "bytes[]",
          "name": "data",
          "type": "bytes[]"
        }
      ],
      "name": "multicall",
      "outputs": [
        {
          "internalType": "bytes[]",
          "name": "results",
          "type": "bytes[]"
        }
      ],
      "stateMutability": "nonpayable",
      "type": "function"
    },
    {
      "inputs": [
        {
          "internalType": "address",
          "name": "_tokenIn",
          "type": "address"
        },
        {
          "internalType": "uint256",
          "name": "_amountIn",
          "type": "uint256"
        },
        {
          "internalType": "address",
          "name": "_tokenOut",
          "type": "address"
        }
      ],
      "name": "quote",
      "outputs": [
        {
          "internalType": "uint256",
          "name": "_amountOut",
          "type": "uint256"
        }
      ],
      "stateMutability": "view",
      "type": "function"
    },
    {
      "inputs": [
        {
          "internalType": "address",
          "name": "_tokenIn",
          "type": "address"
        },
        {
          "internalType": "uint256",
          "name": "_amountIn",
          "type": "uint256"
        },
        {
          "internalType": "address",
          "name": "_tokenOut",
          "type": "address"
        },
        {
          "internalType": "bytes",
          "name": "_data",
          "type": "bytes"
        }
      ],
      "name": "quote",
      "outputs": [
        {
          "internalType": "uint256",
          "name": "_amountOut",
          "type": "uint256"
        }
      ],
      "stateMutability": "view",
      "type": "function"
    },
    {
      "inputs": [
        {
          "internalType": "bytes32",
          "name": "role",
          "type": "bytes32"
        },
        {
          "internalType": "address",
          "name": "account",
          "type": "address"
        }
      ],
      "name": "renounceRole",
      "outputs": [],
      "stateMutability": "nonpayable",
      "type": "function"
    },
    {
      "inputs": [
        {
          "internalType": "bytes32",
          "name": "role",
          "type": "bytes32"
        },
        {
          "internalType": "address",
          "name": "account",
          "type": "address"
        }
      ],
      "name": "revokeRole",
      "outputs": [],
      "stateMutability": "nonpayable",
      "type": "function"
    },
    {
      "inputs": [
        {
          "internalType": "contract ITokenPriceOracle[]",
          "name": "_oracles",
          "type": "address[]"
        }
      ],
      "name": "setAvailableOracles",
      "outputs": [],
      "stateMutability": "nonpayable",
      "type": "function"
    },
    {
      "inputs": [
        {
          "internalType": "bytes4",
          "name": "interfaceId",
          "type": "bytes4"
        }
      ],
      "name": "supportsInterface",
      "outputs": [
        {
          "internalType": "bool",
          "name": "",
          "type": "bool"
        }
      ],
      "stateMutability": "view",
      "type": "function"
    }
  ],
  "transactionHash": "0x8894a5340eb151c9705bc4caa44d6861cefd0db045a4c373cf6b57c59a58d25b",
  "args": [
    [
      "0x4708433c4EF50544e7a37e2903c434F293A21aaC",
      "0xdd18E04096c5E974B23d6205e2138EDA139848D3"
    ],
    "0x308810881807189cAe91950888b2cB73A1CC5920",
    [
      "0x308810881807189cAe91950888b2cB73A1CC5920"
    ]
  ],
  "numDeployments": 1,
  "bytecode": "0x60806040523480156200001157600080fd5b50604051620026e1380380620026e18339810160408190526200003491620003d4565b6001600160a01b0382166200005c5760405163d92e233d60e01b815260040160405180910390fd5b62000077600080516020620026a183398151915283620001c1565b620000a1600080516020620026c1833981519152600080516020620026a1833981519152620001d1565b60005b81518110156200010057620000eb600080516020620026c1833981519152838381518110620000d757620000d7620004b8565b6020026020010151620001c160201b60201c565b80620000f781620004ce565b915050620000a4565b50825115620001b85760005b83518110156200017d5760018482815181106200012d576200012d620004b8565b60209081029190910181015182546001810184556000938452919092200180546001600160a01b0319166001600160a01b03909216919091179055806200017481620004ce565b9150506200010c565b507f4efb62009eb193dd19be50e5c6da31fc1215a76d6f0f3fd7d34f3b867d1e48bb83604051620001af9190620004f6565b60405180910390a15b50505062000545565b620001cd82826200021c565b5050565b600082815260208190526040808220600101805490849055905190918391839186917fbd79b86ffe0ab8e8776151514217cd7cacd52c909f66475c3af44e129f0b00ff9190a4505050565b6000828152602081815260408083206001600160a01b038516845290915290205460ff16620001cd576000828152602081815260408083206001600160a01b03851684529091529020805460ff19166001179055620002783390565b6001600160a01b0316816001600160a01b0316837f2f8788117e7eff1d82e926ec794901d17c78024a50270940304540a733656f0d60405160405180910390a45050565b634e487b7160e01b600052604160045260246000fd5b604051601f8201601f191681016001600160401b0381118282101715620002fd57620002fd620002bc565b604052919050565b60006001600160401b03821115620003215762000321620002bc565b5060051b60200190565b6001600160a01b03811681146200034157600080fd5b50565b805162000351816200032b565b919050565b600082601f8301126200036857600080fd5b81516020620003816200037b8362000305565b620002d2565b82815260059290921b84018101918181019086841115620003a157600080fd5b8286015b84811015620003c9578051620003bb816200032b565b8352918301918301620003a5565b509695505050505050565b600080600060608486031215620003ea57600080fd5b83516001600160401b03808211156200040257600080fd5b818601915086601f8301126200041757600080fd5b815160206200042a6200037b8362000305565b82815260059290921b8401810191818101908a8411156200044a57600080fd5b948201945b838610156200047557855162000465816200032b565b825294820194908201906200044f565b975062000486905088820162000344565b9550505060408601519150808211156200049f57600080fd5b50620004ae8682870162000356565b9150509250925092565b634e487b7160e01b600052603260045260246000fd5b600060018201620004ef57634e487b7160e01b600052601160045260246000fd5b5060010190565b6020808252825182820181905260009190848201906040850190845b81811015620005395783516001600160a01b03168352928401929184019160010162000512565b50909695505050505050565b61214c80620005556000396000f3fe608060405234801561001057600080fd5b50600436106101825760003560e01c80637f55db3a116100d8578063ad18ad0c1161008c578063d547741f11610066578063d547741f146103b5578063dd7de37e146103c8578063fe04e725146103db57600080fd5b8063ad18ad0c1461037c578063d08a8a191461038f578063d0a26eb3146103a257600080fd5b80639363edd6116100bd5780639363edd614610341578063a217fddf14610354578063ac9650d81461035c57600080fd5b80637f55db3a146102ea57806391d14854146102fd57600080fd5b806336568abe1161013a578063734273fd11610114578063734273fd1461029d57806375b238fc146102b057806376d1c875146102d757600080fd5b806336568abe1461024e5780634460bdd6146102615780635da1ac921461028857600080fd5b8063248a9ca31161016b578063248a9ca3146101c457806326c6df95146101f55780632f2ff15d1461023b57600080fd5b806301ffc9a7146101875780630e3f77b8146101af575b600080fd5b61019a610195366004611879565b6103ee565b60405190151581526020015b60405180910390f35b6101c26101bd3660046118dd565b610487565b005b6101e76101d2366004611928565b60009081526020819052604090206001015490565b6040519081526020016101a6565b610208610203366004611941565b6104d7565b60408051825173ffffffffffffffffffffffffffffffffffffffff168152602092830151151592810192909252016101a6565b6101c261024936600461197a565b61050f565b6101c261025c36600461197a565b610539565b6101e77f7613a25ecc738585a232ad50a301178f12b3ba8887d13e138b523c4269c4768981565b6102906105f1565b6040516101a6919061199f565b61019a6102ab366004611941565b610660565b6101e77fa49807205ce4d355092ef5a8a18f56e8913cf4a201fbe287825b095693c2177581565b6101c26102e5366004611a45565b610755565b6101c26102f8366004611941565b6109af565b61019a61030b36600461197a565b60009182526020828152604080842073ffffffffffffffffffffffffffffffffffffffff93909316845291905290205460ff1690565b61019a61034f366004611941565b6109c9565b6101e7600081565b61036f61036a366004611a45565b610a99565b6040516101a69190611b01565b6101e761038a366004611b81565b610b8e565b6101e761039d366004611c92565b610bb5565b6101c26103b0366004611cfe565b610cd5565b6101c26103c336600461197a565b610d06565b6101c26103d6366004611cfe565b610d2b565b6101c26103e9366004611941565b610d99565b60007fffffffff0000000000000000000000000000000000000000000000000000000082167f7965db0b00000000000000000000000000000000000000000000000000000000148061048157507f01ffc9a7000000000000000000000000000000000000000000000000000000007fffffffff000000000000000000000000000000000000000000000000000000008316145b92915050565b7fa49807205ce4d355092ef5a8a18f56e8913cf4a201fbe287825b095693c217756104b181610db3565b6000806104be8686610dc0565b915091506104cf8282866001610e0b565b505050505050565b60408051808201909152600080825260208201526000806104f88585610dc0565b915091506105068282610f84565b95945050505050565b60008281526020819052604090206001015461052a81610db3565b610534838361105e565b505050565b73ffffffffffffffffffffffffffffffffffffffff811633146105e3576040517f08c379a000000000000000000000000000000000000000000000000000000000815260206004820152602f60248201527f416363657373436f6e74726f6c3a2063616e206f6e6c792072656e6f756e636560448201527f20726f6c657320666f722073656c66000000000000000000000000000000000060648201526084015b60405180910390fd5b6105ed828261114e565b5050565b6060600180548060200260200160405190810160405280929190818152602001828054801561065657602002820191906000526020600020905b815473ffffffffffffffffffffffffffffffffffffffff16815260019091019060200180831161062b575b5050505050905090565b600154600090815b8181101561074a576001818154811061068357610683611d60565b6000918252602090912001546040517f734273fd00000000000000000000000000000000000000000000000000000000815273ffffffffffffffffffffffffffffffffffffffff878116600483015286811660248301529091169063734273fd90604401602060405180830381865afa158015610704573d6000803e3d6000fd5b505050506040513d601f19601f820116820180604052508101906107289190611d8f565b1561073857600192505050610481565b8061074281611de0565b915050610668565b506000949350505050565b7fa49807205ce4d355092ef5a8a18f56e8913cf4a201fbe287825b095693c2177561077f81610db3565b60015460008382106107915783610793565b815b905060005b8181101561083a578585828181106107b2576107b2611d60565b90506020020160208101906107c79190611e18565b600182815481106107da576107da611d60565b600091825260209091200180547fffffffffffffffffffffffff00000000000000000000000000000000000000001673ffffffffffffffffffffffffffffffffffffffff929092169190911790558061083281611de0565b915050610798565b848310156108e2575b848110156108dd57600186868381811061085f5761085f611d60565b90506020020160208101906108749190611e18565b81546001810183556000928352602090922090910180547fffffffffffffffffffffffff00000000000000000000000000000000000000001673ffffffffffffffffffffffffffffffffffffffff909216919091179055806108d581611de0565b915050610843565b61096e565b8483111561096e575b8281101561096e57600180548061090457610904611e35565b60008281526020902081017fffffffffffffffffffffffffffffffffffffffffffffffffffffffffffffffff90810180547fffffffffffffffffffffffff00000000000000000000000000000000000000001690550190558061096681611de0565b9150506108eb565b7f4efb62009eb193dd19be50e5c6da31fc1215a76d6f0f3fd7d34f3b867d1e48bb868660405161099f929190611e64565b60405180910390a1505050505050565b6105ed828260405180602001604052806000815250610cd5565b6000806109d684846104d7565b51905073ffffffffffffffffffffffffffffffffffffffff811615801590610a9157506040517f9363edd600000000000000000000000000000000000000000000000000000000815273ffffffffffffffffffffffffffffffffffffffff85811660048301528481166024830152821690639363edd690604401602060405180830381865afa158015610a6d573d6000803e3d6000fd5b505050506040513d601f19601f82011682018060405250810190610a919190611d8f565b949350505050565b60608167ffffffffffffffff811115610ab457610ab4611bb8565b604051908082528060200260200182016040528015610ae757816020015b6060815260200190600190039081610ad25790505b50905060005b82811015610b8757610b5730858584818110610b0b57610b0b611d60565b9050602002810190610b1d9190611ebf565b8080601f01602080910402602001604051908101604052809392919081815260200183838082843760009201919091525061120592505050565b828281518110610b6957610b69611d60565b60200260200101819052508080610b7f90611de0565b915050610aed565b5092915050565b6000610bab84848460405180602001604052806000815250610bb5565b90505b9392505050565b600080610bc286856104d7565b51905073ffffffffffffffffffffffffffffffffffffffff8116610c32576040517f75fcccb700000000000000000000000000000000000000000000000000000000815273ffffffffffffffffffffffffffffffffffffffff8088166004830152851660248201526044016105da565b6040517fd08a8a1900000000000000000000000000000000000000000000000000000000815273ffffffffffffffffffffffffffffffffffffffff82169063d08a8a1990610c8a908990899089908990600401611f24565b602060405180830381865afa158015610ca7573d6000803e3d6000fd5b505050506040513d601f19601f82011682018060405250810190610ccb9190611f63565b9695505050505050565b610cdf83836109c9565b61053457600080610cf08585610dc0565b91509150610cff82828561122a565b5050505050565b600082815260208190526040902060010154610d2181610db3565b610534838361114e565b600080610d388585610dc0565b915091506000610d488383610f84565b602001511580610d8657503360009081527f7d7ffb7a348e1c6a02869081a26547b49160dd3df72d1d75a570eb9b698292ec602052604090205460ff165b905080156104cf576104cf83838661122a565b6105ed828260405180602001604052806000815250610d2b565b610dbd81336113f5565b50565b6000808273ffffffffffffffffffffffffffffffffffffffff168473ffffffffffffffffffffffffffffffffffffffff1610610dfd578284610e00565b83835b909590945092505050565b60405180604001604052808373ffffffffffffffffffffffffffffffffffffffff16815260200182151581525060026000610e9e87876040517fffffffffffffffffffffffffffffffffffffffff000000000000000000000000606084811b8216602084015283901b16603482015260009060480160405160208183030381529060405280519060200120905092915050565b81526020808201929092526040908101600020835181549490930151151574010000000000000000000000000000000000000000027fffffffffffffffffffffff00000000000000000000000000000000000000000090941673ffffffffffffffffffffffffffffffffffffffff90931692909217929092179055517f0b22bdddf68b857630a7f1ff73afdb37c8179f2627c91e8351e59cdeb222e7f290610f769086908690869073ffffffffffffffffffffffffffffffffffffffff93841681529183166020830152909116604082015260600190565b60405180910390a150505050565b604080518082019091526000808252602082015260026000610ffe85856040517fffffffffffffffffffffffffffffffffffffffff000000000000000000000000606084811b8216602084015283901b16603482015260009060480160405160208183030381529060405280519060200120905092915050565b8152602080820192909252604090810160002081518083019092525473ffffffffffffffffffffffffffffffffffffffff8116825274010000000000000000000000000000000000000000900460ff161515918101919091529392505050565b60008281526020818152604080832073ffffffffffffffffffffffffffffffffffffffff8516845290915290205460ff166105ed5760008281526020818152604080832073ffffffffffffffffffffffffffffffffffffffff85168452909152902080547fffffffffffffffffffffffffffffffffffffffffffffffffffffffffffffff001660011790556110f03390565b73ffffffffffffffffffffffffffffffffffffffff168173ffffffffffffffffffffffffffffffffffffffff16837f2f8788117e7eff1d82e926ec794901d17c78024a50270940304540a733656f0d60405160405180910390a45050565b60008281526020818152604080832073ffffffffffffffffffffffffffffffffffffffff8516845290915290205460ff16156105ed5760008281526020818152604080832073ffffffffffffffffffffffffffffffffffffffff8516808552925280832080547fffffffffffffffffffffffffffffffffffffffffffffffffffffffffffffff0016905551339285917ff6391f5c32d9c69d2a47ea670b442974b53935d1edc7fd64eb21e047a839171b9190a45050565b6060610bae83836040518060600160405280602781526020016120f0602791396114c5565b60015460005b818110156113a25760006001828154811061124d5761124d611d60565b6000918252602090912001546040517f734273fd00000000000000000000000000000000000000000000000000000000815273ffffffffffffffffffffffffffffffffffffffff888116600483015287811660248301529091169150819063734273fd90604401602060405180830381865afa1580156112d1573d6000803e3d6000fd5b505050506040513d601f19601f820116820180604052508101906112f59190611d8f565b1561138f576040517fdd7de37e00000000000000000000000000000000000000000000000000000000815273ffffffffffffffffffffffffffffffffffffffff82169063dd7de37e9061135090899089908990600401611f7c565b600060405180830381600087803b15801561136a57600080fd5b505af115801561137e573d6000803e3d6000fd5b505050506104cf8686836000610e0b565b508061139a81611de0565b915050611230565b506040517f2eb4e23d00000000000000000000000000000000000000000000000000000000815273ffffffffffffffffffffffffffffffffffffffff8086166004830152841660248201526044016105da565b60008281526020818152604080832073ffffffffffffffffffffffffffffffffffffffff8516845290915290205460ff166105ed5761144b8173ffffffffffffffffffffffffffffffffffffffff1660146115e3565b6114568360206115e3565b604051602001611467929190611fb5565b604080517fffffffffffffffffffffffffffffffffffffffffffffffffffffffffffffffe0818403018152908290527f08c379a00000000000000000000000000000000000000000000000000000000082526105da91600401612036565b606073ffffffffffffffffffffffffffffffffffffffff84163b61156b576040517f08c379a000000000000000000000000000000000000000000000000000000000815260206004820152602660248201527f416464726573733a2064656c65676174652063616c6c20746f206e6f6e2d636f60448201527f6e7472616374000000000000000000000000000000000000000000000000000060648201526084016105da565b6000808573ffffffffffffffffffffffffffffffffffffffff16856040516115939190612049565b600060405180830381855af49150503d80600081146115ce576040519150601f19603f3d011682016040523d82523d6000602084013e6115d3565b606091505b5091509150610ccb828286611826565b606060006115f2836002612065565b6115fd9060026120a2565b67ffffffffffffffff81111561161557611615611bb8565b6040519080825280601f01601f19166020018201604052801561163f576020820181803683370190505b5090507f30000000000000000000000000000000000000000000000000000000000000008160008151811061167657611676611d60565b60200101907effffffffffffffffffffffffffffffffffffffffffffffffffffffffffffff1916908160001a9053507f7800000000000000000000000000000000000000000000000000000000000000816001815181106116d9576116d9611d60565b60200101907effffffffffffffffffffffffffffffffffffffffffffffffffffffffffffff1916908160001a9053506000611715846002612065565b6117209060016120a2565b90505b60018111156117bd577f303132333435363738396162636465660000000000000000000000000000000085600f166010811061176157611761611d60565b1a60f81b82828151811061177757611777611d60565b60200101907effffffffffffffffffffffffffffffffffffffffffffffffffffffffffffff1916908160001a90535060049490941c936117b6816120ba565b9050611723565b508315610bae576040517f08c379a000000000000000000000000000000000000000000000000000000000815260206004820181905260248201527f537472696e67733a20686578206c656e67746820696e73756666696369656e7460448201526064016105da565b60608315611835575081610bae565b8251156118455782518084602001fd5b816040517f08c379a00000000000000000000000000000000000000000000000000000000081526004016105da9190612036565b60006020828403121561188b57600080fd5b81357fffffffff0000000000000000000000000000000000000000000000000000000081168114610bae57600080fd5b73ffffffffffffffffffffffffffffffffffffffff81168114610dbd57600080fd5b6000806000606084860312156118f257600080fd5b83356118fd816118bb565b9250602084013561190d816118bb565b9150604084013561191d816118bb565b809150509250925092565b60006020828403121561193a57600080fd5b5035919050565b6000806040838503121561195457600080fd5b823561195f816118bb565b9150602083013561196f816118bb565b809150509250929050565b6000806040838503121561198d57600080fd5b82359150602083013561196f816118bb565b6020808252825182820181905260009190848201906040850190845b818110156119ed57835173ffffffffffffffffffffffffffffffffffffffff16835292840192918401916001016119bb565b50909695505050505050565b60008083601f840112611a0b57600080fd5b50813567ffffffffffffffff811115611a2357600080fd5b6020830191508360208260051b8501011115611a3e57600080fd5b9250929050565b60008060208385031215611a5857600080fd5b823567ffffffffffffffff811115611a6f57600080fd5b611a7b858286016119f9565b90969095509350505050565b60005b83811015611aa2578181015183820152602001611a8a565b83811115611ab1576000848401525b50505050565b60008151808452611acf816020860160208601611a87565b601f017fffffffffffffffffffffffffffffffffffffffffffffffffffffffffffffffe0169290920160200192915050565b6000602080830181845280855180835260408601915060408160051b870101925083870160005b82811015611b74577fffffffffffffffffffffffffffffffffffffffffffffffffffffffffffffffc0888603018452611b62858351611ab7565b94509285019290850190600101611b28565b5092979650505050505050565b600080600060608486031215611b9657600080fd5b8335611ba1816118bb565b925060208401359150604084013561191d816118bb565b7f4e487b7100000000000000000000000000000000000000000000000000000000600052604160045260246000fd5b600082601f830112611bf857600080fd5b813567ffffffffffffffff80821115611c1357611c13611bb8565b604051601f83017fffffffffffffffffffffffffffffffffffffffffffffffffffffffffffffffe0908116603f01168101908282118183101715611c5957611c59611bb8565b81604052838152866020858801011115611c7257600080fd5b836020870160208301376000602085830101528094505050505092915050565b60008060008060808587031215611ca857600080fd5b8435611cb3816118bb565b9350602085013592506040850135611cca816118bb565b9150606085013567ffffffffffffffff811115611ce657600080fd5b611cf287828801611be7565b91505092959194509250565b600080600060608486031215611d1357600080fd5b8335611d1e816118bb565b92506020840135611d2e816118bb565b9150604084013567ffffffffffffffff811115611d4a57600080fd5b611d5686828701611be7565b9150509250925092565b7f4e487b7100000000000000000000000000000000000000000000000000000000600052603260045260246000fd5b600060208284031215611da157600080fd5b81518015158114610bae57600080fd5b7f4e487b7100000000000000000000000000000000000000000000000000000000600052601160045260246000fd5b60007fffffffffffffffffffffffffffffffffffffffffffffffffffffffffffffffff8203611e1157611e11611db1565b5060010190565b600060208284031215611e2a57600080fd5b8135610bae816118bb565b7f4e487b7100000000000000000000000000000000000000000000000000000000600052603160045260246000fd5b60208082528181018390526000908460408401835b86811015611eb4578235611e8c816118bb565b73ffffffffffffffffffffffffffffffffffffffff1682529183019190830190600101611e79565b509695505050505050565b60008083357fffffffffffffffffffffffffffffffffffffffffffffffffffffffffffffffe1843603018112611ef457600080fd5b83018035915067ffffffffffffffff821115611f0f57600080fd5b602001915036819003821315611a3e57600080fd5b600073ffffffffffffffffffffffffffffffffffffffff808716835285602084015280851660408401525060806060830152610ccb6080830184611ab7565b600060208284031215611f7557600080fd5b5051919050565b600073ffffffffffffffffffffffffffffffffffffffff8086168352808516602084015250606060408301526105066060830184611ab7565b7f416363657373436f6e74726f6c3a206163636f756e7420000000000000000000815260008351611fed816017850160208801611a87565b7f206973206d697373696e6720726f6c6520000000000000000000000000000000601791840191820152835161202a816028840160208801611a87565b01602801949350505050565b602081526000610bae6020830184611ab7565b6000825161205b818460208701611a87565b9190910192915050565b6000817fffffffffffffffffffffffffffffffffffffffffffffffffffffffffffffffff048311821515161561209d5761209d611db1565b500290565b600082198211156120b5576120b5611db1565b500190565b6000816120c9576120c9611db1565b507fffffffffffffffffffffffffffffffffffffffffffffffffffffffffffffffff019056fe416464726573733a206c6f772d6c6576656c2064656c65676174652063616c6c206661696c6564a2646970667358221220e96ee67cc3f76dda861704768f0f6e8693810b5f2261fd8d1fa5f4468faa49b564736f6c634300080e00337613a25ecc738585a232ad50a301178f12b3ba8887d13e138b523c4269c47689a49807205ce4d355092ef5a8a18f56e8913cf4a201fbe287825b095693c21775"
}