{
  "address": "0xdd18E04096c5E974B23d6205e2138EDA139848D3",
  "abi": [
    {
      "inputs": [
        {
          "components": [
            {
              "internalType": "contract IStaticOracle",
              "name": "uniswapV3Oracle",
              "type": "address"
            },
            {
              "internalType": "uint16",
              "name": "maxPeriod",
              "type": "uint16"
            },
            {
              "internalType": "uint16",
              "name": "minPeriod",
              "type": "uint16"
            },
            {
              "internalType": "uint16",
              "name": "initialPeriod",
              "type": "uint16"
            },
            {
              "internalType": "address",
              "name": "superAdmin",
              "type": "address"
            },
            {
              "internalType": "address[]",
              "name": "initialAdmins",
              "type": "address[]"
            }
          ],
          "internalType": "struct IUniswapV3Adapter.InitialConfig",
          "name": "_initialConfig",
          "type": "tuple"
        }
      ],
      "stateMutability": "nonpayable",
      "type": "constructor"
    },
    {
      "inputs": [],
      "name": "InvalidCardinalityPerMinute",
      "type": "error"
    },
    {
      "inputs": [],
      "name": "InvalidDenylistParams",
      "type": "error"
    },
    {
      "inputs": [
        {
          "internalType": "uint16",
          "name": "period",
          "type": "uint16"
        }
      ],
      "name": "InvalidPeriod",
      "type": "error"
    },
    {
      "inputs": [
        {
          "internalType": "address",
          "name": "tokenA",
          "type": "address"
        },
        {
          "internalType": "address",
          "name": "tokenB",
          "type": "address"
        }
      ],
      "name": "PairCannotBeSupported",
      "type": "error"
    },
    {
      "inputs": [
        {
          "internalType": "address",
          "name": "tokenA",
          "type": "address"
        },
        {
          "internalType": "address",
          "name": "tokenB",
          "type": "address"
        }
      ],
      "name": "PairNotSupportedYet",
      "type": "error"
    },
    {
      "inputs": [],
      "name": "ZeroAddress",
      "type": "error"
    },
    {
      "anonymous": false,
      "inputs": [
        {
          "indexed": false,
          "internalType": "uint8",
          "name": "cardinalityPerMinute",
          "type": "uint8"
        }
      ],
      "name": "CardinalityPerMinuteChanged",
      "type": "event"
    },
    {
      "anonymous": false,
      "inputs": [
        {
          "components": [
            {
              "internalType": "address",
              "name": "tokenA",
              "type": "address"
            },
            {
              "internalType": "address",
              "name": "tokenB",
              "type": "address"
            }
          ],
          "indexed": false,
          "internalType": "struct IUniswapV3Adapter.Pair[]",
          "name": "pairs",
          "type": "tuple[]"
        },
        {
          "indexed": false,
          "internalType": "bool[]",
          "name": "denylisted",
          "type": "bool[]"
        }
      ],
      "name": "DenylistChanged",
      "type": "event"
    },
    {
      "anonymous": false,
      "inputs": [
        {
          "indexed": false,
          "internalType": "uint32",
          "name": "period",
          "type": "uint32"
        }
      ],
      "name": "PeriodChanged",
      "type": "event"
    },
    {
      "anonymous": false,
      "inputs": [
        {
          "indexed": true,
          "internalType": "bytes32",
          "name": "role",
          "type": "bytes32"
        },
        {
          "indexed": true,
          "internalType": "bytes32",
          "name": "previousAdminRole",
          "type": "bytes32"
        },
        {
          "indexed": true,
          "internalType": "bytes32",
          "name": "newAdminRole",
          "type": "bytes32"
        }
      ],
      "name": "RoleAdminChanged",
      "type": "event"
    },
    {
      "anonymous": false,
      "inputs": [
        {
          "indexed": true,
          "internalType": "bytes32",
          "name": "role",
          "type": "bytes32"
        },
        {
          "indexed": true,
          "internalType": "address",
          "name": "account",
          "type": "address"
        },
        {
          "indexed": true,
          "internalType": "address",
          "name": "sender",
          "type": "address"
        }
      ],
      "name": "RoleGranted",
      "type": "event"
    },
    {
      "anonymous": false,
      "inputs": [
        {
          "indexed": true,
          "internalType": "bytes32",
          "name": "role",
          "type": "bytes32"
        },
        {
          "indexed": true,
          "internalType": "address",
          "name": "account",
          "type": "address"
        },
        {
          "indexed": true,
          "internalType": "address",
          "name": "sender",
          "type": "address"
        }
      ],
      "name": "RoleRevoked",
      "type": "event"
    },
    {
      "anonymous": false,
      "inputs": [
        {
          "indexed": false,
          "internalType": "address",
          "name": "tokenA",
          "type": "address"
        },
        {
          "indexed": false,
          "internalType": "address",
          "name": "tokenB",
          "type": "address"
        },
        {
          "indexed": false,
          "internalType": "address[]",
          "name": "pools",
          "type": "address[]"
        }
      ],
      "name": "UpdatedSupport",
      "type": "event"
    },
    {
      "inputs": [],
      "name": "ADMIN_ROLE",
      "outputs": [
        {
          "internalType": "bytes32",
          "name": "",
          "type": "bytes32"
        }
      ],
      "stateMutability": "view",
      "type": "function"
    },
    {
      "inputs": [],
      "name": "DEFAULT_ADMIN_ROLE",
      "outputs": [
        {
          "internalType": "bytes32",
          "name": "",
          "type": "bytes32"
        }
      ],
      "stateMutability": "view",
      "type": "function"
    },
    {
      "inputs": [],
      "name": "MAX_PERIOD",
      "outputs": [
        {
          "internalType": "uint16",
          "name": "",
          "type": "uint16"
        }
      ],
      "stateMutability": "view",
      "type": "function"
    },
    {
      "inputs": [],
      "name": "MIN_PERIOD",
      "outputs": [
        {
          "internalType": "uint16",
          "name": "",
          "type": "uint16"
        }
      ],
      "stateMutability": "view",
      "type": "function"
    },
    {
      "inputs": [],
      "name": "SUPER_ADMIN_ROLE",
      "outputs": [
        {
          "internalType": "bytes32",
          "name": "",
          "type": "bytes32"
        }
      ],
      "stateMutability": "view",
      "type": "function"
    },
    {
      "inputs": [],
      "name": "UNISWAP_V3_ORACLE",
      "outputs": [
        {
          "internalType": "contract IStaticOracle",
          "name": "",
          "type": "address"
        }
      ],
      "stateMutability": "view",
      "type": "function"
    },
    {
      "inputs": [
        {
          "internalType": "address",
          "name": "_tokenA",
          "type": "address"
        },
        {
          "internalType": "address",
          "name": "_tokenB",
          "type": "address"
        },
        {
          "internalType": "bytes",
          "name": "",
          "type": "bytes"
        }
      ],
      "name": "addOrModifySupportForPair",
      "outputs": [],
      "stateMutability": "nonpayable",
      "type": "function"
    },
    {
      "inputs": [
        {
          "internalType": "address",
          "name": "_tokenA",
          "type": "address"
        },
        {
          "internalType": "address",
          "name": "_tokenB",
          "type": "address"
        }
      ],
      "name": "addOrModifySupportForPair",
      "outputs": [],
      "stateMutability": "nonpayable",
      "type": "function"
    },
    {
      "inputs": [
        {
          "internalType": "address",
          "name": "_tokenA",
          "type": "address"
        },
        {
          "internalType": "address",
          "name": "_tokenB",
          "type": "address"
        }
      ],
      "name": "addSupportForPairIfNeeded",
      "outputs": [],
      "stateMutability": "nonpayable",
      "type": "function"
    },
    {
      "inputs": [
        {
          "internalType": "address",
          "name": "_tokenA",
          "type": "address"
        },
        {
          "internalType": "address",
          "name": "_tokenB",
          "type": "address"
        },
        {
          "internalType": "bytes",
          "name": "",
          "type": "bytes"
        }
      ],
      "name": "addSupportForPairIfNeeded",
      "outputs": [],
      "stateMutability": "nonpayable",
      "type": "function"
    },
    {
      "inputs": [
        {
          "internalType": "address",
          "name": "_tokenA",
          "type": "address"
        },
        {
          "internalType": "address",
          "name": "_tokenB",
          "type": "address"
        }
      ],
      "name": "canSupportPair",
      "outputs": [
        {
          "internalType": "bool",
          "name": "",
          "type": "bool"
        }
      ],
      "stateMutability": "view",
      "type": "function"
    },
    {
      "inputs": [],
      "name": "cardinalityPerMinute",
      "outputs": [
        {
          "internalType": "uint8",
          "name": "",
          "type": "uint8"
        }
      ],
      "stateMutability": "view",
      "type": "function"
    },
    {
      "inputs": [
        {
          "internalType": "address",
          "name": "_tokenA",
          "type": "address"
        },
        {
          "internalType": "address",
          "name": "_tokenB",
          "type": "address"
        }
      ],
      "name": "getPoolsPreparedForPair",
      "outputs": [
        {
          "internalType": "address[]",
          "name": "",
          "type": "address[]"
        }
      ],
      "stateMutability": "view",
      "type": "function"
    },
    {
      "inputs": [
        {
          "internalType": "bytes32",
          "name": "role",
          "type": "bytes32"
        }
      ],
      "name": "getRoleAdmin",
      "outputs": [
        {
          "internalType": "bytes32",
          "name": "",
          "type": "bytes32"
        }
      ],
      "stateMutability": "view",
      "type": "function"
    },
    {
      "inputs": [
        {
          "internalType": "bytes32",
          "name": "role",
          "type": "bytes32"
        },
        {
          "internalType": "address",
          "name": "account",
          "type": "address"
        }
      ],
      "name": "grantRole",
      "outputs": [],
      "stateMutability": "nonpayable",
      "type": "function"
    },
    {
      "inputs": [
        {
          "internalType": "bytes32",
          "name": "role",
          "type": "bytes32"
        },
        {
          "internalType": "address",
          "name": "account",
          "type": "address"
        }
      ],
      "name": "hasRole",
      "outputs": [
        {
          "internalType": "bool",
          "name": "",
          "type": "bool"
        }
      ],
      "stateMutability": "view",
      "type": "function"
    },
    {
      "inputs": [
        {
          "internalType": "address",
          "name": "_tokenA",
          "type": "address"
        },
        {
          "internalType": "address",
          "name": "_tokenB",
          "type": "address"
        }
      ],
      "name": "isPairAlreadySupported",
      "outputs": [
        {
          "internalType": "bool",
          "name": "",
          "type": "bool"
        }
      ],
      "stateMutability": "view",
      "type": "function"
    },
    {
      "inputs": [
        {
          "internalType": "address",
          "name": "_tokenA",
          "type": "address"
        },
        {
          "internalType": "address",
          "name": "_tokenB",
          "type": "address"
        }
      ],
      "name": "isPairDenylisted",
      "outputs": [
        {
          "internalType": "bool",
          "name": "",
          "type": "bool"
        }
      ],
      "stateMutability": "view",
      "type": "function"
    },
    {
      "inputs": [],
      "name": "period",
      "outputs": [
        {
          "internalType": "uint16",
          "name": "",
          "type": "uint16"
        }
      ],
      "stateMutability": "view",
      "type": "function"
    },
    {
      "inputs": [
        {
          "internalType": "address",
          "name": "_tokenIn",
          "type": "address"
        },
        {
          "internalType": "uint256",
          "name": "_amountIn",
          "type": "uint256"
        },
        {
          "internalType": "address",
          "name": "_tokenOut",
          "type": "address"
        }
      ],
      "name": "quote",
      "outputs": [
        {
          "internalType": "uint256",
          "name": "_amountOut",
          "type": "uint256"
        }
      ],
      "stateMutability": "view",
      "type": "function"
    },
    {
      "inputs": [
        {
          "internalType": "address",
          "name": "_tokenIn",
          "type": "address"
        },
        {
          "internalType": "uint256",
          "name": "_amountIn",
          "type": "uint256"
        },
        {
          "internalType": "address",
          "name": "_tokenOut",
          "type": "address"
        },
        {
          "internalType": "bytes",
          "name": "",
          "type": "bytes"
        }
      ],
      "name": "quote",
      "outputs": [
        {
          "internalType": "uint256",
          "name": "",
          "type": "uint256"
        }
      ],
      "stateMutability": "view",
      "type": "function"
    },
    {
      "inputs": [
        {
          "internalType": "bytes32",
          "name": "role",
          "type": "bytes32"
        },
        {
          "internalType": "address",
          "name": "account",
          "type": "address"
        }
      ],
      "name": "renounceRole",
      "outputs": [],
      "stateMutability": "nonpayable",
      "type": "function"
    },
    {
      "inputs": [
        {
          "internalType": "bytes32",
          "name": "role",
          "type": "bytes32"
        },
        {
          "internalType": "address",
          "name": "account",
          "type": "address"
        }
      ],
      "name": "revokeRole",
      "outputs": [],
      "stateMutability": "nonpayable",
      "type": "function"
    },
    {
      "inputs": [
        {
          "internalType": "uint8",
          "name": "_cardinalityPerMinute",
          "type": "uint8"
        }
      ],
      "name": "setCardinalityPerMinute",
      "outputs": [],
      "stateMutability": "nonpayable",
      "type": "function"
    },
    {
      "inputs": [
        {
          "components": [
            {
              "internalType": "address",
              "name": "tokenA",
              "type": "address"
            },
            {
              "internalType": "address",
              "name": "tokenB",
              "type": "address"
            }
          ],
          "internalType": "struct IUniswapV3Adapter.Pair[]",
          "name": "_pairs",
          "type": "tuple[]"
        },
        {
          "internalType": "bool[]",
          "name": "_denylisted",
          "type": "bool[]"
        }
      ],
      "name": "setDenylisted",
      "outputs": [],
      "stateMutability": "nonpayable",
      "type": "function"
    },
    {
      "inputs": [
        {
          "internalType": "uint16",
          "name": "_newPeriod",
          "type": "uint16"
        }
      ],
      "name": "setPeriod",
      "outputs": [],
      "stateMutability": "nonpayable",
      "type": "function"
    },
    {
      "inputs": [
        {
          "internalType": "bytes4",
          "name": "interfaceId",
          "type": "bytes4"
        }
      ],
      "name": "supportsInterface",
      "outputs": [
        {
          "internalType": "bool",
          "name": "",
          "type": "bool"
        }
      ],
      "stateMutability": "view",
      "type": "function"
    }
  ],
  "transactionHash": "0xcc430e59e8f6ee0002d834583d217357b77bc7a18d0863978ff0dbf6bb1496b3",
  "args": [
    {
      "uniswapV3Oracle": "0xB210CE856631EeEB767eFa666EC7C1C57738d438",
      "maxPeriod": 2700,
      "minPeriod": 300,
      "initialPeriod": 600,
      "superAdmin": "0x1a00e1E311009E56e3b0B9Ed6F86f5Ce128a1C01",
      "initialAdmins": [
        "0x1a00e1E311009E56e3b0B9Ed6F86f5Ce128a1C01"
      ]
    }
  ],
  "numDeployments": 1,
  "bytecode": "0x60e06040523480156200001157600080fd5b506040516200272438038062002724833981016040819052620000349162000440565b60808101516001600160a01b0316620000605760405163d92e233d60e01b815260040160405180910390fd5b80516001600160a01b03166080908152602082015161ffff90811660a05260408301511660c052810151620000a690600080516020620026e483398151915290620002a0565b620000d060008051602062002704833981519152600080516020620026e4833981519152620002b0565b60005b8160a0015151811015620001375762000122600080516020620027048339815191528360a0015183815181106200010e576200010e62000592565b6020026020010151620002a060201b60201c565b806200012e81620005a8565b915050620000d3565b5060c05161ffff16816060015161ffff16108062000162575060a05161ffff16816060015161ffff16115b1562000191576060810151604051634acfe33f60e11b815261ffff909116600482015260240160405180910390fd5b60608101516001805461ffff191661ffff90921691821790556040519081527ff822214854e5620527e54c8a9293eb963df052efebe733964f7dea0be73f2c8a9060200160405180910390a160006080516001600160a01b031663b7604e536040518163ffffffff1660e01b8152600401602060405180830381865afa15801562000220573d6000803e3d6000fd5b505050506040513d601f19601f82011682018060405250810190620002469190620005d0565b6001805462ff000019166201000060ff8416908102919091179091556040519081529091507f0dfaaf3cfeb17bc2ce4be3c02afaeaab84c2778f74e4a9eacb553ae4a7ec1b089060200160405180910390a15050620005fc565b620002ac8282620002fb565b5050565b600082815260208190526040808220600101805490849055905190918391839186917fbd79b86ffe0ab8e8776151514217cd7cacd52c909f66475c3af44e129f0b00ff9190a4505050565b6000828152602081815260408083206001600160a01b038516845290915290205460ff16620002ac576000828152602081815260408083206001600160a01b03851684529091529020805460ff19166001179055620003573390565b6001600160a01b0316816001600160a01b0316837f2f8788117e7eff1d82e926ec794901d17c78024a50270940304540a733656f0d60405160405180910390a45050565b634e487b7160e01b600052604160045260246000fd5b60405160c081016001600160401b0381118282101715620003d657620003d66200039b565b60405290565b604051601f8201601f191681016001600160401b03811182821017156200040757620004076200039b565b604052919050565b6001600160a01b03811681146200042557600080fd5b50565b805161ffff811681146200043b57600080fd5b919050565b600060208083850312156200045457600080fd5b82516001600160401b03808211156200046c57600080fd5b9084019060c082870312156200048157600080fd5b6200048b620003b1565b825162000498816200040f565b8152620004a783850162000428565b84820152620004b96040840162000428565b6040820152620004cc6060840162000428565b60608201526080830151620004e1816200040f565b608082015260a083015182811115620004f957600080fd5b80840193505086601f8401126200050f57600080fd5b8251828111156200052457620005246200039b565b8060051b925062000537858401620003dc565b81815292840185019285810190898511156200055257600080fd5b948601945b848610156200058057855192506200056f836200040f565b828252948601949086019062000557565b60a08401525090979650505050505050565b634e487b7160e01b600052603260045260246000fd5b600060018201620005c957634e487b7160e01b600052601160045260246000fd5b5060010190565b600060208284031215620005e357600080fd5b815160ff81168114620005f557600080fd5b9392505050565b60805160a05160c0516120956200064f600039600081816103ce0152610d350152600081816104080152610d660152600081816103100152818161078001528181610924015261118e01526120956000f3fe608060405234801561001057600080fd5b50600436106101b95760003560e01c80639363edd6116100f9578063d547741f11610097578063e996fe3811610071578063e996fe3814610489578063ef78d4fd1461049c578063fba2a2d2146104aa578063fe04e725146104bd57600080fd5b8063d547741f14610450578063da601e2014610463578063dd7de37e1461047657600080fd5b8063bbccf154116100d3578063bbccf154146103c9578063c810b7fe14610403578063d08a8a191461042a578063d0a26eb31461043d57600080fd5b80639363edd61461039b578063a217fddf146103ae578063ad18ad0c146103b657600080fd5b806359e3f7c81161016657806375b238fc1161014057806375b238fc146102d15780637f55db3a146102f857806391256d621461030b57806391d148541461035757600080fd5b806359e3f7c81461028657806362998c3914610299578063734273fd146102be57600080fd5b80632f2ff15d116101975780632f2ff15d1461023757806336568abe1461024c5780634460bdd61461025f57600080fd5b806301ffc9a7146101be5780631f102920146101e6578063248a9ca314610206575b600080fd5b6101d16101cc366004611759565b6104d0565b60405190151581526020015b60405180910390f35b6101f96101f43660046117bd565b610569565b6040516101dd9190611847565b61022961021436600461185a565b60009081526020819052604090206001015490565b6040519081526020016101dd565b61024a610245366004611873565b6105f5565b005b61024a61025a366004611873565b61061f565b6102297f7613a25ecc738585a232ad50a301178f12b3ba8887d13e138b523c4269c4768981565b6101d16102943660046117bd565b6106d7565b6001546102ac9062010000900460ff1681565b60405160ff90911681526020016101dd565b6101d16102cc3660046117bd565b610702565b6102297fa49807205ce4d355092ef5a8a18f56e8913cf4a201fbe287825b095693c2177581565b61024a6103063660046117bd565b6107fe565b6103327f000000000000000000000000000000000000000000000000000000000000000081565b60405173ffffffffffffffffffffffffffffffffffffffff90911681526020016101dd565b6101d1610365366004611873565b60009182526020828152604080842073ffffffffffffffffffffffffffffffffffffffff93909316845291905290205460ff1690565b6101d16103a93660046117bd565b610816565b610229600081565b6102296103c4366004611898565b610840565b6103f07f000000000000000000000000000000000000000000000000000000000000000081565b60405161ffff90911681526020016101dd565b6103f07f000000000000000000000000000000000000000000000000000000000000000081565b610229610438366004611923565b6109fa565b61024a61044b366004611996565b610a11565b61024a61045e366004611873565b610a21565b61024a6104713660046119fb565b610a46565b61024a610484366004611996565b610b1d565b61024a610497366004611a1e565b610b27565b6001546103f09061ffff1681565b61024a6104b8366004611ae6565b610d09565b61024a6104cb3660046117bd565b610e2e565b60007fffffffff0000000000000000000000000000000000000000000000000000000082167f7965db0b00000000000000000000000000000000000000000000000000000000148061056357507f01ffc9a7000000000000000000000000000000000000000000000000000000007fffffffff000000000000000000000000000000000000000000000000000000008316145b92915050565b6060600360006105798585610e60565b81526020019081526020016000208054806020026020016040519081016040528092919081815260200182805480156105e857602002820191906000526020600020905b815473ffffffffffffffffffffffffffffffffffffffff1681526001909101906020018083116105bd575b5050505050905092915050565b60008281526020819052604090206001015461061081610ed0565b61061a8383610edd565b505050565b73ffffffffffffffffffffffffffffffffffffffff811633146106c9576040517f08c379a000000000000000000000000000000000000000000000000000000000815260206004820152602f60248201527f416363657373436f6e74726f6c3a2063616e206f6e6c792072656e6f756e636560448201527f20726f6c657320666f722073656c66000000000000000000000000000000000060648201526084015b60405180910390fd5b6106d38282610fcd565b5050565b6000600260006106e78585610e60565b815260208101919091526040016000205460ff169392505050565b6000600260006107128585610e60565b815260208101919091526040016000205460ff161561073357506000610563565b6040517f62d9911900000000000000000000000000000000000000000000000000000000815273ffffffffffffffffffffffffffffffffffffffff848116600483015283811660248301527f000000000000000000000000000000000000000000000000000000000000000016906362d9911990604401600060405180830381865afa9250505080156107e857506040513d6000823e601f3d908101601f191682016040526107e59190810190611b49565b60015b6107f457506000610563565b5115159050610563565b6108088282610816565b6106d3576106d38282611084565b600080600360006108278686610e60565b8152602081019190915260400160002054119392505050565b600080600360006108518786610e60565b81526020019081526020016000208054806020026020016040519081016040528092919081815260200182805480156108c057602002820191906000526020600020905b815473ffffffffffffffffffffffffffffffffffffffff168152600190910190602001808311610895575b505050505090508051600003610922576040517f75fcccb700000000000000000000000000000000000000000000000000000000815273ffffffffffffffffffffffffffffffffffffffff8087166004830152841660248201526044016106c0565b7f000000000000000000000000000000000000000000000000000000000000000073ffffffffffffffffffffffffffffffffffffffff166307f7ca9f6109678661133e565b6001546040517fffffffff0000000000000000000000000000000000000000000000000000000060e085901b1681526109b092918a918991889161ffff90911690600401611c0e565b602060405180830381865afa1580156109cd573d6000803e3d6000fd5b505050506040513d601f19601f820116820180604052508101906109f19190611c75565b95945050505050565b6000610a07868686610840565b9695505050505050565b610a1b84846107fe565b50505050565b600082815260208190526040902060010154610a3c81610ed0565b61061a8383610fcd565b7fa49807205ce4d355092ef5a8a18f56e8913cf4a201fbe287825b095693c21775610a7081610ed0565b8160ff16600003610aad576040517ffb45314200000000000000000000000000000000000000000000000000000000815260040160405180910390fd5b600180547fffffffffffffffffffffffffffffffffffffffffffffffffffffffffff00ffff166201000060ff8516908102919091179091556040519081527f0dfaaf3cfeb17bc2ce4be3c02afaeaab84c2778f74e4a9eacb553ae4a7ec1b08906020015b60405180910390a15050565b610a1b8484610e2e565b7fa49807205ce4d355092ef5a8a18f56e8913cf4a201fbe287825b095693c21775610b5181610ed0565b838214610b8a576040517fea0cbfd800000000000000000000000000000000000000000000000000000000815260040160405180910390fd5b60005b84811015610cc4576000610bf1878784818110610bac57610bac611c8e565b610bc29260206040909202019081019150611cbd565b888885818110610bd457610bd4611c8e565b9050604002016020016020810190610bec9190611cbd565b610e60565b9050848483818110610c0557610c05611c8e565b9050602002016020810190610c1a9190611cea565b600082815260026020526040902080547fffffffffffffffffffffffffffffffffffffffffffffffffffffffffffffff0016911515919091179055848483818110610c6757610c67611c8e565b9050602002016020810190610c7c9190611cea565b8015610c95575060008181526003602052604090205415155b15610cb1576000818152600360205260408120610cb19161172b565b5080610cbc81611d34565b915050610b8d565b507f61dc2ee022375a12edeb878648cef7f34415191216b80dda488193d5370016cd85858585604051610cfa9493929190611d6c565b60405180910390a15050505050565b7fa49807205ce4d355092ef5a8a18f56e8913cf4a201fbe287825b095693c21775610d3381610ed0565b7f000000000000000000000000000000000000000000000000000000000000000061ffff168261ffff161080610d9057507f000000000000000000000000000000000000000000000000000000000000000061ffff168261ffff16115b15610dcd576040517f959fc67e00000000000000000000000000000000000000000000000000000000815261ffff831660048201526024016106c0565b600180547fffffffffffffffffffffffffffffffffffffffffffffffffffffffffffff00001661ffff84169081179091556040519081527ff822214854e5620527e54c8a9293eb963df052efebe733964f7dea0be73f2c8a90602001610b11565b60036000610e3c8484610e60565b81526020019081526020016000206000610e56919061172b565b6106d38282611084565b6000806000610e6f85856113e4565b6040517fffffffffffffffffffffffffffffffffffffffff000000000000000000000000606084811b8216602084015283901b1660348201529193509150604801604051602081830303815290604052805190602001209250505092915050565b610eda813361142f565b50565b60008281526020818152604080832073ffffffffffffffffffffffffffffffffffffffff8516845290915290205460ff166106d35760008281526020818152604080832073ffffffffffffffffffffffffffffffffffffffff85168452909152902080547fffffffffffffffffffffffffffffffffffffffffffffffffffffffffffffff00166001179055610f6f3390565b73ffffffffffffffffffffffffffffffffffffffff168173ffffffffffffffffffffffffffffffffffffffff16837f2f8788117e7eff1d82e926ec794901d17c78024a50270940304540a733656f0d60405160405180910390a45050565b60008281526020818152604080832073ffffffffffffffffffffffffffffffffffffffff8516845290915290205460ff16156106d35760008281526020818152604080832073ffffffffffffffffffffffffffffffffffffffff8516808552925280832080547fffffffffffffffffffffffffffffffffffffffffffffffffffffffffffffff0016905551339285917ff6391f5c32d9c69d2a47ea670b442974b53935d1edc7fd64eb21e047a839171b9190a45050565b60006110908383610e60565b60008181526002602052604090205490915060ff16156110fc576040517f2eb4e23d00000000000000000000000000000000000000000000000000000000815273ffffffffffffffffffffffffffffffffffffffff8085166004830152831660248201526044016106c0565b600154600090603c9061111c9060ff620100008204169061ffff16611e20565b6111269190611e4c565b611131906001611e96565b6040517f1b2a933c00000000000000000000000000000000000000000000000000000000815273ffffffffffffffffffffffffffffffffffffffff8681166004830152858116602483015261ffff831660448301529192506000917f00000000000000000000000000000000000000000000000000000000000000001690631b2a933c906064016000604051808303816000875af11580156111d7573d6000803e3d6000fd5b505050506040513d6000823e601f3d908101601f191682016040526111ff9190810190611b49565b9050805160000361125c576040517f2eb4e23d00000000000000000000000000000000000000000000000000000000815273ffffffffffffffffffffffffffffffffffffffff8087166004830152851660248201526044016106c0565b6000838152600360205260408120905b82518110156112fa578183828151811061128857611288611c8e565b60209081029190910181015182546001810184556000938452919092200180547fffffffffffffffffffffffff00000000000000000000000000000000000000001673ffffffffffffffffffffffffffffffffffffffff909216919091179055806112f281611d34565b91505061126c565b507f4b5c6b381765087508ecc8a13a7b3b5c56ad6e20fbd4029264ed18a71c8b5e7086868460405161132e93929190611ebc565b60405180910390a1505050505050565b60006fffffffffffffffffffffffffffffffff8211156113e0576040517f08c379a000000000000000000000000000000000000000000000000000000000815260206004820152602760248201527f53616665436173743a2076616c756520646f65736e27742066697420696e203160448201527f323820626974730000000000000000000000000000000000000000000000000060648201526084016106c0565b5090565b6000808273ffffffffffffffffffffffffffffffffffffffff168473ffffffffffffffffffffffffffffffffffffffff1610611421578284611424565b83835b909590945092505050565b60008281526020818152604080832073ffffffffffffffffffffffffffffffffffffffff8516845290915290205460ff166106d3576114858173ffffffffffffffffffffffffffffffffffffffff1660146114e1565b6114908360206114e1565b6040516020016114a1929190611f21565b60408051601f19818403018152908290527f08c379a00000000000000000000000000000000000000000000000000000000082526106c091600401611fa2565b606060006114f0836002611fd5565b6114fb906002612012565b67ffffffffffffffff81111561151357611513611b0a565b6040519080825280601f01601f19166020018201604052801561153d576020820181803683370190505b5090507f30000000000000000000000000000000000000000000000000000000000000008160008151811061157457611574611c8e565b60200101907effffffffffffffffffffffffffffffffffffffffffffffffffffffffffffff1916908160001a9053507f7800000000000000000000000000000000000000000000000000000000000000816001815181106115d7576115d7611c8e565b60200101907effffffffffffffffffffffffffffffffffffffffffffffffffffffffffffff1916908160001a9053506000611613846002611fd5565b61161e906001612012565b90505b60018111156116bb577f303132333435363738396162636465660000000000000000000000000000000085600f166010811061165f5761165f611c8e565b1a60f81b82828151811061167557611675611c8e565b60200101907effffffffffffffffffffffffffffffffffffffffffffffffffffffffffffff1916908160001a90535060049490941c936116b48161202a565b9050611621565b508315611724576040517f08c379a000000000000000000000000000000000000000000000000000000000815260206004820181905260248201527f537472696e67733a20686578206c656e67746820696e73756666696369656e7460448201526064016106c0565b9392505050565b5080546000825590600052602060002090810190610eda91905b808211156113e05760008155600101611745565b60006020828403121561176b57600080fd5b81357fffffffff000000000000000000000000000000000000000000000000000000008116811461172457600080fd5b73ffffffffffffffffffffffffffffffffffffffff81168114610eda57600080fd5b600080604083850312156117d057600080fd5b82356117db8161179b565b915060208301356117eb8161179b565b809150509250929050565b600081518084526020808501945080840160005b8381101561183c57815173ffffffffffffffffffffffffffffffffffffffff168752958201959082019060010161180a565b509495945050505050565b60208152600061172460208301846117f6565b60006020828403121561186c57600080fd5b5035919050565b6000806040838503121561188657600080fd5b8235915060208301356117eb8161179b565b6000806000606084860312156118ad57600080fd5b83356118b88161179b565b92506020840135915060408401356118cf8161179b565b809150509250925092565b60008083601f8401126118ec57600080fd5b50813567ffffffffffffffff81111561190457600080fd5b60208301915083602082850101111561191c57600080fd5b9250929050565b60008060008060006080868803121561193b57600080fd5b85356119468161179b565b945060208601359350604086013561195d8161179b565b9250606086013567ffffffffffffffff81111561197957600080fd5b611985888289016118da565b969995985093965092949392505050565b600080600080606085870312156119ac57600080fd5b84356119b78161179b565b935060208501356119c78161179b565b9250604085013567ffffffffffffffff8111156119e357600080fd5b6119ef878288016118da565b95989497509550505050565b600060208284031215611a0d57600080fd5b813560ff8116811461172457600080fd5b60008060008060408587031215611a3457600080fd5b843567ffffffffffffffff80821115611a4c57600080fd5b818701915087601f830112611a6057600080fd5b813581811115611a6f57600080fd5b8860208260061b8501011115611a8457600080fd5b602092830196509450908601359080821115611a9f57600080fd5b818701915087601f830112611ab357600080fd5b813581811115611ac257600080fd5b8860208260051b8501011115611ad757600080fd5b95989497505060200194505050565b600060208284031215611af857600080fd5b813561ffff8116811461172457600080fd5b7f4e487b7100000000000000000000000000000000000000000000000000000000600052604160045260246000fd5b8051611b448161179b565b919050565b60006020808385031215611b5c57600080fd5b825167ffffffffffffffff80821115611b7457600080fd5b818501915085601f830112611b8857600080fd5b815181811115611b9a57611b9a611b0a565b8060051b604051601f19603f83011681018181108582111715611bbf57611bbf611b0a565b604052918252848201925083810185019188831115611bdd57600080fd5b938501935b82851015611c0257611bf385611b39565b84529385019392850192611be2565b98975050505050505050565b6fffffffffffffffffffffffffffffffff86168152600073ffffffffffffffffffffffffffffffffffffffff808716602084015280861660408401525060a06060830152611c5f60a08301856117f6565b905061ffff831660808301529695505050505050565b600060208284031215611c8757600080fd5b5051919050565b7f4e487b7100000000000000000000000000000000000000000000000000000000600052603260045260246000fd5b600060208284031215611ccf57600080fd5b81356117248161179b565b80358015158114611b4457600080fd5b600060208284031215611cfc57600080fd5b61172482611cda565b7f4e487b7100000000000000000000000000000000000000000000000000000000600052601160045260246000fd5b60007fffffffffffffffffffffffffffffffffffffffffffffffffffffffffffffffff8203611d6557611d65611d05565b5060010190565b60408082528181018590526000908660608401835b88811015611dd3578235611d948161179b565b73ffffffffffffffffffffffffffffffffffffffff908116835260209084820135611dbe8161179b565b16908301529183019190830190600101611d81565b508481036020868101919091528682529250820190508560005b86811015611e1257611dfe82611cda565b151583529183019190830190600101611ded565b509098975050505050505050565b600063ffffffff80831681851681830481118215151615611e4357611e43611d05565b02949350505050565b600063ffffffff80841680611e8a577f4e487b7100000000000000000000000000000000000000000000000000000000600052601260045260246000fd5b92169190910492915050565b600061ffff808316818516808303821115611eb357611eb3611d05565b01949350505050565b600073ffffffffffffffffffffffffffffffffffffffff8086168352808516602084015250606060408301526109f160608301846117f6565b60005b83811015611f10578181015183820152602001611ef8565b83811115610a1b5750506000910152565b7f416363657373436f6e74726f6c3a206163636f756e7420000000000000000000815260008351611f59816017850160208801611ef5565b7f206973206d697373696e6720726f6c65200000000000000000000000000000006017918401918201528351611f96816028840160208801611ef5565b01602801949350505050565b6020815260008251806020840152611fc1816040850160208701611ef5565b601f01601f19169190910160400192915050565b6000817fffffffffffffffffffffffffffffffffffffffffffffffffffffffffffffffff048311821515161561200d5761200d611d05565b500290565b6000821982111561202557612025611d05565b500190565b60008161203957612039611d05565b507fffffffffffffffffffffffffffffffffffffffffffffffffffffffffffffffff019056fea26469706673582212206d6eaae1421a1535279b818c98f56280afd97171e55adce079ad0b1c4af5602964736f6c634300080e00337613a25ecc738585a232ad50a301178f12b3ba8887d13e138b523c4269c47689a49807205ce4d355092ef5a8a18f56e8913cf4a201fbe287825b095693c21775"
}